:020000040800F2
:10000000D8060020C5000008CD000008CF00000879
:1000100000000000000000000000000000000000E0
:10002000000000000000000000000000D1000008F7
:100030000000000000000000D30000083713000893
:10004000D7000008D7000008D7000008D700000834
:10005000D7000008D7000008D7000008D700000824
:1000600000000000D700000855010008D700000874
:10007000D7000008D7000008D7000008D700000804
:10008000D70000080000000000000000D7000008B2
:1000900000000000D7000008D7000008D7000008C3
:1000A00000000000D700000800000000D700000892
:1000B0000348854600F03CF8004800472518000832
:1000C000D80600200448804704480047FEE7FEE7C2
:1000D000FEE7FEE7FEE7FEE7B9130008B1000008FF
:1000E00030B50B46014600202022012409E00D46D0
:1000F000D5409D4205D31D469540491B2546954058
:1001000040191546521E002DF1DC30BDD2B201E07F
:100110000270401C491EFBD270470022F6E710B562
:1001200013460A4604461946FFF7F0FF204610BD65
:10013000064C0125064E05E0E36807CC2B430C3C3A
:1001400098471034B442F7D3FFF7B6FFF81D000804
:10015000181E000810B5034800F01AF8024800F015
:1001600017F810BDE80000202C01002010B504464F
:100170000068054940181421FFF7B2FF8000206491
:100180000248E06310BD0000F8FFFDBF0000024020
:10019000F0B4C16B0D6801680C680422066C13464C
:1001A000B3402B420DD063070BD50B689B0602D4DE
:1001B0000B6893430B60016C8A40C16B4A60C16A53
:1001C00019E00227B74002462F4001232032002FBA
:1001D00015D0A70713D50C68A40604D40C680A250B
:1001E000AC430C605370036C02219940C36B59609F
:1001F00000211170816A002916D0F0BC0847082739
:10020000B7402F4210D024070ED50C680E25AC4302
:100210000C60046C1946A140C46B61608363537029
:1002200000211170016BE6E7F0BC704770B5040067
:1002300024D00220214620310D46487022681168E2
:100240000F48A3680140606826691843E368334398
:10025000184363691843A3691843E36918430843C3
:1002600010602046FFF782FF0020A062E06220635A
:100270006063A06301216970287070BD012070BDAA
:100280000FC0FFFF31B500F0B9F8009C0546601CB7
:1002900000D0641C00F0B2F8401BA042FAD338BD75
:1002A000F8B5002389E001249C402A46A446224058
:1002B0007ED04C68022C01D0122C0CD1DC08A4009A
:1002C00027183C6A5D07ED0E0F26AE40B4430E6959
:1002D000AE4026433E6205685E000324B4400F79B9
:1002E000A543BF07BF0FB7402F4307604D68012DDF
:1002F00005D0022D03D0112D01D0122D0ED185680D
:10030000CF68A543B7402F43876047686546AF4332
:100310000D79ED06ED0F9D403D434560C568A54351
:100320008C68B4402C43C4604C68E40044D5264C2F
:10033000A56901263543A561A4699D083440009450
:10034000224CAD002F19BC689D072E0F0F25B5401C
:10035000AC430925ED06A84201D100250AE01C4D59
:10036000A84201D1012505E01A4DA84201D102257C
:1003700000E00525B5402543BD60174C25684E6853
:100380009543F60300D51543256065684E6895438F
:10039000B60300D515436560A5684E689543F6021F
:1003A00000D51543A560E5684E689543B60200E0A8
:1003B00002E000D51543E5605B1C0A681546DA408B
:1003C00000D070E7F8BD00000010024000000140BE
:1003D000000400480008004800040140006908408B
:1003E00000D00120704742694A4042617047002AAC
:1003F00001D0816170478162704700000148006848
:10040000704700000000002002480168491C01609C
:10041000704700000000002010B506480168102257
:1004200011430160002000F007F800F017F80020E9
:1004300010BD00000020024010B5044600F048F94D
:100440007D21C900FFF74CFE00F030FD002221465F
:10045000501E00F02FF8002010BD000008B50F4816
:100460008169012211438161816911400091C26952
:1004700001040A43C261C06900220840009011468D
:10048000501F00F017F800221146901E00F012F8DD
:1004900000221146501E00F00DF808BD0010024069
:1004A000C106C90E0120884001490860704700005C
:1004B00000E100E010B500F065FE10BDF8B505469E
:1004C0000068354CC00352D5E0690026C00007D44F
:1004D000E16920040143E161E169014001260091E5
:1004E0002E480168C90510D40168821511430160C6
:1004F000FFF784FF074604E0FFF780FFC01B642876
:1005000024D826480068C005F6D5206A03273F0294
:10051000384020D06968394081421CD0206A226A64
:10052000B843012109040A432262226A8A432262F3
:100530002062C0070FD0FFF761FF009008E0FFF7CF
:100540005DFF0099411A1648814201D90320F8BD88
:10055000206A8007F3D5206A6968B843084320629F
:10056000002E04D0E169012000078143E161287871
:10057000C00705D0206BA96880088000084320636D
:100580002878800605D5206B10218843E968084348
:1005900020630020F8BD0000001002400070004001
:1005A00088130000F8B5054644480E460068C007A9
:1005B000C00FB0420AD2414801684908490031439E
:1005C00001600068C007C00FB0425CD128783C4C85
:1005D000800705D56068F0218843A96808436060FA
:1005E0002878C0073FD06868012813D02168022806
:1005F00013D08907002946DA616889088900014318
:100600006160FFF7FBFE6968074601290DD00229EA
:1006100017D024E021688903ECE78901EAE7FFF7B6
:10062000EDFEC11B2748814217D860680007800F84
:100630000128F4D117E0FFF7E1FEC11B21488142F8
:100640000BD860680007800F0228F4D10BE0FFF799
:10065000D5FEC11B1B48814201D90320F8BD60684B
:100660000007800FF3D115480168C907C90FB142CF
:100670000BD9016849084900314301600068C0078F
:10068000C00FB04201D00120F8BD2878400706D540
:100690006068072109028843E9680843606000F048
:1006A0002DF86168084A0906090F515CC8400749DE
:1006B00008600020FFF7C0FE0020F8BD00200240C7
:1006C0000010024088130000C41C00080400002031
:1006D00001480068704700000400002004480549F4
:1006E00000684968044A4905490F515CC840704791
:1006F0000400002000100240D41C000810B512A312
:100700000FCB88B06C460FC413A30FCB0FC4164990
:100710004A680C20134603401448042B0FD0082BC2
:100720000DD193021B0F6C46E45CC96A04AB090748
:10073000090F595CD20304D5FFF7D2FC604308B01F
:1007400010BD0B486043FAE70203040506070809D9
:100750000A0B0C0D0E0F101001020304050607080A
:10076000090A0B0C0D0E0F100010024000127A0047
:1007700000093D00FEB504460078D04DC00747D0C3
:1007800068680007800F012807D068680007800F9D
:10079000022809D16868C00306D52868800337D5C8
:1007A000606800287ED033E0012062680004012ADE
:1007B00011D08100002A01D0052A10D02A68824376
:1007C0002A602868884328606068002814D0FFF7F2
:1007D00015FE06460CE0296801432960F4E72A6803
:1007E0000A432A60F7E7FFF709FE801B64286FD8E9
:1007F00028688003F7D50BE0FFF700FE064604E00B
:10080000FFF7FCFD801B6428F1D828688003F7D42B
:1008100020780126800700283BDA68680007800FEF
:1008200007D068680007800F022809D16868C003F4
:1008300006D42868800715D5E068012832D111E078
:10084000E0680028286815D030432860FFF7D6FDFF
:10085000074604E0FFF7D2FDC01B0228C7D828686E
:100860008007F7D52868F82188432169C900084323
:1008700028600EE0400840002860FFF7BFFD0746F3
:1008800004E0FFF7BBFDC01B0228B0D82868800732
:10089000F7D42078000724D5E0690028686A10D0D2
:1008A000304300E008E16862FFF7A8FD074604E076
:1008B000FFF7A4FDC01B022899D8686A8007F7D506
:1008C0000FE0400840006862FFF798FD074605E02A
:1008D0009DE0FFF793FDC01B022888D8686A800757
:1008E000F7D4207804274007002860DA0020019020
:1008F000E869C00008D4E969B8060143E961E9691B
:1009000001400120009101906D480168C90511D492
:100910000168821511430160FFF770FD009005E04A
:10092000FFF76CFD0099401A642870D8644800688D
:10093000C005F5D5A06801280AD0002801D00528F7
:1009400010D0286A400840002862286AB84301E0B5
:10095000286A30432862A068002812D0FFF74EFDB5
:1009600000900AE0286A38432862F1E7FFF746FD65
:100970000099411A5348814249D8286A8007F5D521
:100980000DE0FFF73BFD009006E0FFF737FD009913
:10099000411A4C4881423AD8286A8007F5D4019818
:1009A000002804D0E969012000078143E96120782B
:1009B000C00635D5606901280CD0401D686B23D076
:1009C00038436863686B400840006863FFF716FDB2
:1009D000064622E0686B38436863686B304368639F
:1009E000FFF70CFD064604E0FFF708FD801B022818
:1009F0005BD8686B8007F7D5686BF8218843A169DD
:100A0000C900084368630BE0B8436863F4E74CE04F
:100A1000FFF7F4FC801B022847D8686B8007F7D4E7
:100A2000206A002846D069680907890F022943D047
:100A3000012636060228286805D0B0432860FFF753
:100A4000DDFC044633E0B0432860FFF7D7FC0746DF
:100A500004E0FFF7D3FCC01B022826D828688001D9
:100A6000F7D4E86AE16A000900010843E862616AB4
:100A7000A06A084369683D221204914308436860F4
:100A8000286830432860FFF7B9FC044604E0FFF70C
:100A9000B5FC001B022808D828688001F7D509E0BA
:100AA000FFF7ACFC001B022801D90320FEBD28681B
:100AB0008001F5D40020FEBD0120FEBD00100240E3
:100AC0000070004088130000F8B5040007D000262D
:100AD00025464035A662687F002802D005E0012047
:100AE000F8BD2E77204600F04BF802236B77206884
:100AF00001684022914301600721E06809028842B1
:100B000001D9002201E0012212030F273F02B8425F
:100B100002D0884200D0A662276B002F05D1884200
:100B200001D9236301E001202063A1686068636943
:100B300008432169194308430123A1695B02194055
:100B40000843E1690843216A0843A16A0843216810
:100B50000860616B606AA36908431B0C0427E168A5
:100B60003B40194308432168104348602068C1692D
:100B70007A029143C1612666012068770020F8BDA2
:100B8000F0B506460068244987B0884242D1234820
:100B9000826981140A4382618069002408400590BB
:100BA000E020009002200190012002900320039099
:100BB000092069460494C006FFF772FB1848194DD6
:100BC000802711C52C60AC60EC602C616F606C619B
:100BD0001448083DFFF72AFB002803D06F2112A01C
:100BE00000F06DFDB5656E620D48164D143028603D
:100BF0001020291D91C12C616C61AC612846EC610B
:100C0000FFF714FB002803D07F2107A000F057FD59
:100C100075656E6207B0F0BD003001400010024003
:100C20001C000240E80000202E2E2F5372632F7309
:100C3000746D3332663078785F68616C5F6D7370A5
:100C40002E6300002C010020FFB5044683B0012074
:100C5000254640350090287F00270E4601280FD0FA
:100C600001202877FFF7CAFB0190687F616801289F
:100C70000DD0CA1FFD3A08D1A168002905D102E0B4
:100C8000022007B0F0BD042801D00227FAE0002EB0
:100C90007CD005980028FBD006980028F8D0687F03
:100CA000042801D00520687700202066059921647A
:100CB0000699E9800699A980A6630699E1870699B5
:100CC000A187E06420650723E1681B02994202D8EE
:100CD000E888012806D920684268012109038A436F
:100CE000426005E02068416801221203114341601F
:100CF00020680168490603D401684022114301605D
:100D0000E1686068994242D9002802D0E08F01284A
:100D100035D121683088C860E08F401EE087B61C5E
:100D20002DE0009800280ED0E08F00280BD020681E
:100D30008168890707D53188C160E08F401EE08750
:100D40000020B61C0090E88800280ED0206881683A
:100D5000C9070AD0C068059908800598801C0590CD
:100D6000E888401EE880012000900C98401C06D0C6
:100D7000FFF744FB0199411A0C9881426DD2E08F34
:100D80000028CED1E8880028CBD16EE079E0002899
:100D900002D0E08F012862D1E08F012807D92168B5
:100DA0003088C860E08F801EE087B61C57E021685D
:100DB00030780873E08F401EE087761C4FE0009883
:100DC000002818D0E08F002815D020688168890796
:100DD00011D5E18F012906D93188C160E08F801ECD
:100DE000E087B61C05E031780173E08F401EE08794
:100DF000761C00200090E888002824D020688168B4
:100E0000C90720D0E988012912D9C068059908804E
:100E10000598801C0590E888801EE880E8880128F5
:100E20000FD820684168012212031143416008E095
:100E3000017B059801700598401C0590E888401ECC
:100E4000E880012000900C98401C08D0FFF7D6FAEB
:100E50000199401A0C99884201D3032712E0E08FD0
:100E60000028ACD1E8880028A9D12046019A0C9925
:100E700000F0AAF9002801D020202066206E00286A
:100E800000D0012701206877002028773846F8E64F
:100E9000042204490428086902D09043086170477D
:100EA0001043FBE700E000E070470000094910B57F
:100EB000401E884201D9012010BD074C606103210A
:100EC000081F00F05FF90020A061072020610020CA
:100ED00010BD0000FFFFFF0000E000E010B5FFF7CD
:100EE000E3FF10BD70B5040005D025466035687A73
:100EF000002802D006E0012070BD002028722046A4
:100F000000F026F82420687220680168490849002A
:100F10000160204600F018FB0128EDD0606A00282F
:100F200002D0204600F076FA206841680922D202F9
:100F300091434160206881682A2291438160206842
:100F40000168012211430160204600F0C9FA70BD1A
:100F500000B500680E4987B0884217D10D488269F4
:100F6000012189030A4382618069084005900A488B
:100F700000900220019000200290032003900120A5
:100F8000049009206946C006FFF78AF907B000BD42
:100F9000003801400010024004800000FFB5064602
:100FA00004466036707A83B00D46202858D1002D53
:100FB0000CD00598002809D00120A16800038142C7
:100FC00007D12069002804D1E80702D0012007B02A
:100FD000F0BD307A012843D0012030720020E06655
:100FE00021207072FFF70AFA0190274640370598D2
:100FF00038820598788218E0788A401E78820698B0
:101000000090002280212046019B00F027FB002851
:1010100018D10120A1680003814202D12069002873
:1010200012D02168287808856D1C788A0028E3D1C1
:1010300006980090002240212046019B00F00EFB04
:10104000002808D00320C2E728882168C005C00D09
:101050000885AD1CE9E72020707200203072B6E7E9
:101060000220B4E7F0B5244887B042690121890520
:101070000A43426142690A400592426949110A43A2
:10108000426142690A400592426949000A4342614D
:10109000406909270840FF060590002218213846BC
:1010A000FFF7A5F9002208211448FFF7A0F9032053
:1010B000002401256A4631C269463846FFF7F0F838
:1010C0000826029469463846009601950394FFF776
:1010D000E7F8102000900195694602950394384680
:1010E000FFF7DEF8029469460448009601950394E0
:1010F000FFF7D6F807B0F0BD00100240000400482A
:1011000010B511480F490160FF21053141600021F0
:101110000722816012020161C26001224161520214
:101120008261016230224162C26181620722C26231
:10113000016308214163FFF7C7FC002800D0FEE7E8
:1011400010BD0000003001401400002010B50C4814
:101150000A490160E1214902416000218160C160CA
:1011600001618161C1610C22016242614162FFF74C
:10117000B9FE002800D0FEE710BD00000038014095
:10118000780000208307FF22DB0E9A408907090EB2
:10119000994000280BDA0007000F08388308084838
:1011A0009B001818C36993430B43C36170478308BE
:1011B00004489B001B181868904308431860704748
:1011C00000ED00E000E400E0F8B50F460B461546E0
:1011D0000092032104460022C90200F01BF82026D9
:1011E000002812D13B46002280212046009500F0C5
:1011F0005CF8002809D103213B4600224902204621
:10120000009500F007F8002803D0206E30432066D8
:101210000320F8BDF8B51D4617460E4604463DE0CE
:10122000032149028E4205D1002F03D1017B68467C
:1012300001700078681C31D0002D05D0FFF7DEF872
:101240000699401AA84229D320684168E0229143B8
:1012500041606068C11FFD390CD10121A068C9033C
:10126000884202D04911884204D120680168402296
:10127000914301600120A16A4003814207D12168A6
:101280000A6882430A6021680A6802430A600120F2
:1012900040346077002020770320F8BD2068816803
:1012A0003140B942BCD10020F8BDF8B51D46174603
:1012B0000E46044633E0681C31D0002D05D0FFF700
:1012C0009DF80699401AA84229D320684168E02277
:1012D000914341606068C11FFD390CD10121A068B4
:1012E000C903884202D04911884204D120680168AC
:1012F0004022914301600120A16A4003814207D14D
:1013000021680A6882430A6021680A6802430A6009
:10131000012040346077002020770320F8BD20684A
:1013200081683046884304D00020B842C3D10020F1
:10133000F8BD0120F9E710B5FFF766F8FFF7CEFD1D
:1013400010BD70B594B000241020099402250490BB
:10135000052001260095C00403960A9008950B9479
:101360006846FFF707FA002800D0FEE707200C9038
:101370000E9401210D950F940CA8FFF713F9002886
:1013800000D0FEE710A810961294FFF797F80028F7
:1013900000D0FEE7FFF79CF97D21C900FEF7A0FE13
:1013A000FFF784FD0420FFF773FD00221146501E55
:1013B000FFF780F814B070BD134801680122114393
:1013C00001604168114A114041600168104A1140B2
:1013D00001600168012292049143016041683F224B
:1013E000120491434160C16A09090901C162016B9C
:1013F000FF22143291430163416B49084900416364
:101400000021816070470000001002400CB8FF0806
:10141000FFFFF6FE10B5818CC90707D001684A6846
:1014200001235B049A43836A1A434A60818C8907CB
:1014300007D501684A6801231B049A43C36A1A430B
:101440004A60818C490707D501684A6801239B04DB
:101450009A43036B1A434A60818C090707D50168D8
:101460004A680123DB039A43436B1A434A60818C29
:10147000C90607D50268916801231B039943836B52
:1014800019439160818C890607D501688A68012318
:101490005B039A43C36B1A438A60818C490612D559
:1014A00003685A6801210905046C8A4322435A6083
:1014B000026C8A4207D10268516803235B05994395
:1014C000436C19435160818C090607D501684A684D
:1014D0000123DB04806C9A4302434A6010BD000084
:1014E000F8B500260446C666FEF788FF054614498F
:1014F000206888421DD10068124F000709D50121DC
:101500002B46002249052046009700F0A7F8002846
:101510000DD12068006840070BD501212B46002221
:1015200089052046009700F099F8002801D0032093
:10153000F8BD202060346072A07226720020F8BDD1
:1015400000380140FFFFFF01F8B504462369A26897
:10155000E6691A43636910213343002026681A4361
:1015600033680546394F3B401343336023685A685C
:1015700003263603B243E66832435A60236AA269FF
:1015800026681A43B3680B273F02BB431343B3607B
:101590002F4A126B9207920F06D0012A08D0022A16
:1015A00008D0032A07D101E0002104E0022102E073
:1015B000042100E008210122E369D203934224D1EF
:1015C00000290CD002290DD0042913D0082917D0E6
:1015D0000125010909010007400F084332E0FFF728
:1015E0007DF809E061681B4A48088018FEF778FD1D
:1015F00080B2EEE7FFF782F8616840004A08F4E73E
:101600006168012248081204EFE7002908D0022986
:1016100009D004290BD008290ED001252846F8BD91
:10162000FFF75CF805E061680B4A480806E0FFF741
:1016300065F861684A0801E0616848088018FEF7AB
:101640004FFD80B22168C860E8E70000F369FFFF42
:10165000001002400024F40000127A00FFB581B0AF
:1016600017460E4604460A9D1DE0681C1BD0002D3F
:1016700005D0FEF7C3FE0499401AA84213D920688A
:101680000168FF22A1329143016020688168490806
:1016900049008160202060346072A07200202072B6
:1016A000032005B0F0BD2068C1693046884304D0EE
:1016B0000020B842D9D00020F3E70120F9E7FEE787
:1016C0000FB410B503A9044B044A029800F017F8B0
:1016D00010BC08BC04B01847D11700081000002047
:1016E00002E008C8121F08C1002AFAD170477047EB
:1016F000002001E001C1121F002AFBD17047FFB595
:1017000081B00546002706E025280AD0049A0399EF
:1017100090476D1C7F1C28780028F5D1384605B00D
:10172000F0BD002269786D1C10462E2913D169780E
:1017300004226D1C2A2909D102996D1C01C902914C
:1017400009E00A235843303808186D1C29780B46E5
:10175000303B092BF5D92B78002BDFD0632B07D03A
:10176000732B10D0049A1846039990477F1C2DE0E4
:1017700002996C460B782370091D0291002161705B
:101780006E46012104E0029940C902910021C9433B
:1017900052070AD5002400E0641C84420DDA8C4212
:1017A000FADB325D002AF7D107E0002400E0641C78
:1017B0008C42FCDB305D0028F9D13F1904E0307821
:1017C000049A761C03999047641EF8D26D1CA2E718
:1017D00013B501231A4669460248FFF7DFFB00985C
:1017E0001CBD00007800002010B500F0FFF80028B4
:1017F00012D100221146104600F0D0F90748807837
:10180000C10604D50649072000F0EAF904E0000704
:1018100002D5022000F0AEF9012010BDB001002079
:101820007001002008B5FEF7F7FDFFF78AFDFFF70E
:1018300019FC1848416901221143416140690121A5
:101840001040009000220A20FEF734FE0A20FEF726
:1018500027FEFFF77BFCFFF753FCFF20F530FEF778
:1018600011FD0DA0FFF72CFF00F0E6F91548006808
:10187000007900F00FFA0025134CFFF7B5FF01289F
:10188000FBD120787228F8D10F4910A0FFF718FF7C
:101890002570F2E700100240746869732074657364
:1018A000742069732073746D333266303331207362
:1018B000706920524620527820746573747E21210D
:1018C0000D0A0000080000207001002025730D0A99
:1018D0000000000001490020087070470C00002043
:1018E000F8B50F460646104C00F070F8442000F0A2
:1018F000D3F800F08BF80546FF2804D000F07DF8FF
:10190000641EF1D1FEE7002E05D000F05FF83946E5
:10191000304600F09DF800F070F8002CF2D003493A
:10192000012008702846F8BD102700000C00002098
:1019300010B500210846FFF7D3FF10BDF8B50D4CD8
:101940001D4616460746002902D104E0FFF7F0FFC6
:1019500020780028FAD000F039F8384600F09CF8DA
:101960002946304600F074F800F047F80020207057
:10197000F8BD00000C00002070B50D460646094C6D
:1019800001E0FFF7D5FF20780028FAD000F01EF81C
:101990002946304600F09EF800F02FF80020207015
:1019A00070BD00000C00002070B51C461546FFF706
:1019B000E3FF21462846FFF793FF70BD10B50920CD
:1019C00001220821C006FEF712FD10BD10B5092046
:1019D00000221021C006FEF70AFD10BD10B5092037
:1019E00000220821C006FEF702FD10BD10B5092037
:1019F0000121C006FEF7F2FC10BD10B5092001223E
:101A00001021C006FEF7F3FC10BD00000EB500204B
:101A1000694608720A200090012301AA02A906481B
:101A2000FFF712F9002803D0552104A0FFF747FE65
:101A3000684600790EBD0000140000202E2E5C5375
:101A400072635C726164696F5F68616C2E63000031
:101A500030B59BB00C460546142101A8FEF75DFB8E
:101A60000A2000902B46224601A90548FFF7ECF812
:101A7000002803D06C2103A0FFF721FE1BB030BD6E
:101A8000140000202E2E5C5372635C726164696FD7
:101A90005F68616C2E63000001B582B00A2000907F
:101AA000012301AA02A90548FFF7CEF8002803D0B8
:101AB000482103A0FFF703FE0EBD00001400002024
:101AC0002E2E5C5372635C726164696F5F68616C37
:101AD0002E63000000B59BB00A220346009201AAC3
:101AE0000548FFF7B1F8002803D0602103A0FFF7F5
:101AF000E6FD1BB000BD0000140000202E2E5C533C
:101B000072635C726164696F5F68616C2E63000070
:101B1000F8B5174D04462E46143E23E0641C102FE2
:101B20001ED8002004E021782954401CC0B2641C57
:101B3000B842F8D300231A460D493846FFF734FF60
:101B4000FF2801D00220F8BDFFF750FF002809D17F
:101B500000221146104600F021F8B079000701D5A7
:101B60000420F8BD2778002FD8D10020F8BD000050
:101B7000C401002010B5084C152121706070234667
:101B8000022219461046FFF70FFF2046217814382D
:101B900001706178417010BDC401002010B50F4C78
:101BA000202323706070A170E2702346082219463A
:101BB0000420FFF7F9FE204621781438017061787F
:101BC0004170A1788170E178C170217901716179EA
:101BD0004171A1798171E179C17110BDC401002009
:101BE00010B50B46024600217720FFF7A7FE10BD77
:101BF00010B5FFF7E3FE0420FEF744FBFFF7EEFE0F
:101C00000420FEF73FFBFFF765FE10BDF8B5094C59
:101C10003227079E069D27706070A170100AE07041
:101C200022716371A571E67121460820FFF7A4FEB9
:101C3000F8BD0000C401002070B500F023F80022B8
:101C400011461046FFF7AAFF0C4C0D4DFF26F53646
:101C500020680068FFF75CFF002809D008212846AB
:101C6000FEF7C1FB3046FEF70DFB00F00BF8EFE787
:101C7000002211461046FFF791FF70BD08000020BA
:101C80000004004810B5FFF7B3FFFF20F530FEF762
:101C9000F9FA10BD1CB50022044611461046FFF7A4
:101CA0007DFF08210091002301910722194620465B
:101CB000FFF7ACFF012208210148FEF798FB1CBD8D
:101CC00000040048000000000000000001020304BE
:101CD00006070809000000000102030407020100D2
:101CE000018CBA8008134B480000674B00061100B6
:101CF00002005200051100010360061101020001FB
:101D00001808110204000000000005111001043140
:101D1000071111030001B42B051112010602051170
:101D200012010F041011200C000200070186A0010F
:101D30008CBA800006051120010C4D0C11200818EA
:101D400001800803800020200D1120092201450197
:101D5000934C00CA02C20B1120072C043680220FBC
:101D600050800511200135E20D1120093811474737
:101D70000002FFFF002A0D11200942A402D68301B0
:101D80004D0180FF051120014C00051120014E403E
:101D900005112001510A1011210C00CCA130A02105
:101DA000D1B9C9EA0512111011210C0C0A0415FC55
:101DB0000300CCA130A021D11011210C18B9C9EA1F
:101DC0000512110A0415FC030005112201033D0B45
:101DD000112307002C0E0B040C73030C1140080098
:101DE000410CEC4E4EC520FE00000000DC1C00083B
:101DF0000007030000F00000181E0008000000208B
:101E000014000000E01600082C1E0008140000203A
:101E1000C4060000F01600080000000000127A005E
:0C1E2000EC1D00080000000000000000A5
:04000005080000B13E
:00000001FF
